{
  "contractName": "AuditContract",
  "abi": [
    {
      "inputs": [],
      "stateMutability": "nonpayable",
      "type": "constructor"
    },
    {
      "anonymous": false,
      "inputs": [
        {
          "indexed": false,
          "internalType": "uint256",
          "name": "newFee",
          "type": "uint256"
        }
      ],
      "name": "AuditFeeSet",
      "type": "event"
    },
    {
      "anonymous": false,
      "inputs": [
        {
          "indexed": false,
          "internalType": "uint256",
          "name": "recordId",
          "type": "uint256"
        },
        {
          "indexed": false,
          "internalType": "string",
          "name": "codeHash",
          "type": "string"
        },
        {
          "indexed": false,
          "internalType": "address",
          "name": "auditor",
          "type": "address"
        },
        {
          "indexed": false,
          "internalType": "uint256",
          "name": "timestamp",
          "type": "uint256"
        }
      ],
      "name": "AuditRecorded",
      "type": "event"
    },
    {
      "anonymous": false,
      "inputs": [
        {
          "indexed": false,
          "internalType": "string",
          "name": "message",
          "type": "string"
        }
      ],
      "name": "Debug",
      "type": "event"
    },
    {
      "inputs": [],
      "name": "auditFee",
      "outputs": [
        {
          "internalType": "uint256",
          "name": "",
          "type": "uint256"
        }
      ],
      "stateMutability": "view",
      "type": "function",
      "constant": true
    },
    {
      "inputs": [
        {
          "internalType": "uint256",
          "name": "",
          "type": "uint256"
        }
      ],
      "name": "auditRecords",
      "outputs": [
        {
          "internalType": "string",
          "name": "codeHash",
          "type": "string"
        },
        {
          "internalType": "address",
          "name": "auditor",
          "type": "address"
        },
        {
          "internalType": "uint256",
          "name": "timestamp",
          "type": "uint256"
        }
      ],
      "stateMutability": "view",
      "type": "function",
      "constant": true
    },
    {
      "inputs": [],
      "name": "owner",
      "outputs": [
        {
          "internalType": "address",
          "name": "",
          "type": "address"
        }
      ],
      "stateMutability": "view",
      "type": "function",
      "constant": true
    },
    {
      "inputs": [],
      "name": "recordCount",
      "outputs": [
        {
          "internalType": "uint256",
          "name": "",
          "type": "uint256"
        }
      ],
      "stateMutability": "view",
      "type": "function",
      "constant": true
    },
    {
      "inputs": [
        {
          "internalType": "string",
          "name": "_codeHash",
          "type": "string"
        }
      ],
      "name": "uploadAuditRecord",
      "outputs": [],
      "stateMutability": "payable",
      "type": "function",
      "payable": true
    },
    {
      "inputs": [
        {
          "internalType": "uint256",
          "name": "_newFee",
          "type": "uint256"
        }
      ],
      "name": "setAuditFee",
      "outputs": [],
      "stateMutability": "nonpayable",
      "type": "function"
    },
    {
      "inputs": [
        {
          "internalType": "address",
          "name": "_newOwner",
          "type": "address"
        }
      ],
      "name": "changeOwner",
      "outputs": [],
      "stateMutability": "nonpayable",
      "type": "function"
    }
  ],
  "bytecode": "0x6080604052655af3107a400060025534801561001a57600080fd5b50600380546001600160a01b031916331790556108288061003c6000396000f3fe6080604052600436106100705760003560e01c80638da5cb5b1161004e5780638da5cb5b146100d5578063900407bc146100f7578063a6f9dae11461010c578063e74e786d1461012c57610070565b80630aca2ac6146100755780633d6dfe731461008a57806362ac543e146100b5575b600080fd5b610088610083366004610503565b61015b565b005b34801561009657600080fd5b5061009f6102c2565b6040516100ac919061073c565b60405180910390f35b3480156100c157600080fd5b506100886100d03660046105a4565b6102c8565b3480156100e157600080fd5b506100ea610327565b6040516100ac9190610607565b34801561010357600080fd5b5061009f610336565b34801561011857600080fd5b506100886101273660046104d5565b61033c565b34801561013857600080fd5b5061014c6101473660046105a4565b610388565b6040516100ac9392919061061b565b6002543410156101865760405162461bcd60e51b815260040161017d906106c2565b60405180910390fd5b7f7cdb51e9dbbc205231228146c3246e7f914aa6d4a33170e43ecc8e3593481d1a6040516101b39061068b565b60405180910390a1600180549060006101cb836107b5565b9091555050604080516060810182528281523360208083019190915242828401526001546000908152808252929092208151805192939192610210928492019061043c565b5060208201518160010160006101000a8154816001600160a01b0302191690836001600160a01b03160217905550604082015181600201559050507feafa5c7a74222a40a521f8cadd6f4fddc48df5a8acf6a35f5be8ae2b206764546001548233426040516102829493929190610745565b60405180910390a17f7cdb51e9dbbc205231228146c3246e7f914aa6d4a33170e43ecc8e3593481d1a6040516102b790610649565b60405180910390a150565b60025481565b6003546001600160a01b031633146102f25760405162461bcd60e51b815260040161017d906106f2565b60028190556040517ff9536e69afeef5807b56e560fb467597c265f8352ca0b6fc14b276a91874a514906102b790839061073c565b6003546001600160a01b031681565b60015481565b6003546001600160a01b031633146103665760405162461bcd60e51b815260040161017d906106f2565b600380546001600160a01b0319166001600160a01b0392909216919091179055565b6000602081905290815260409020805481906103a39061077a565b80601f01602080910402602001604051908101604052809291908181526020018280546103cf9061077a565b801561041c5780601f106103f15761010080835404028352916020019161041c565b820191906000526020600020905b8154815290600101906020018083116103ff57829003601f168201915b50505050600183015460029093015491926001600160a01b031691905083565b8280546104489061077a565b90600052602060002090601f01602090048101928261046a57600085556104b0565b82601f1061048357805160ff19168380011785556104b0565b828001600101855582156104b0579182015b828111156104b0578251825591602001919060010190610495565b506104bc9291506104c0565b5090565b5b808211156104bc57600081556001016104c1565b6000602082840312156104e6578081fd5b81356001600160a01b03811681146104fc578182fd5b9392505050565b60006020808385031215610515578182fd5b823567ffffffffffffffff8082111561052c578384fd5b818501915085601f83011261053f578384fd5b813581811115610551576105516107dc565b604051601f8201601f1916810185018381118282101715610574576105746107dc565b604052818152838201850188101561058a578586fd5b818585018683013790810190930193909352509392505050565b6000602082840312156105b5578081fd5b5035919050565b60008151808452815b818110156105e1576020818501810151868301820152016105c5565b818111156105f25782602083870101525b50601f01601f19169290920160200192915050565b6001600160a01b0391909116815260200190565b60006060825261062e60608301866105bc565b6001600160a01b039490941660208301525060400152919050565b60208082526022908201527f4175646974207265636f72642075706c6f61646564207375636365737366756c6040820152616c7960f01b606082015260800190565b60208082526017908201527f4175646974206665652069732073756666696369656e74000000000000000000604082015260600190565b602080825260169082015275496e73756666696369656e742061756469742066656560501b604082015260600190565b6020808252602a908201527f4f6e6c7920636f6e7472616374206f776e65722063616e2063616c6c207468696040820152693990333ab731ba34b7b760b11b606082015260800190565b90815260200190565b60008582526080602083015261075e60808301866105bc565b6001600160a01b03949094166040830152506060015292915050565b60028104600182168061078e57607f821691505b602082108114156107af57634e487b7160e01b600052602260045260246000fd5b50919050565b60006000198214156107d557634e487b7160e01b81526011600452602481fd5b5060010190565b634e487b7160e01b600052604160045260246000fdfea264697066735822122080954125ddc64eb2b3832414cbff4fbd67c289e1b76be3c4a5a4cbf23fee9a3564736f6c63430008000033",
  "immutableReferences": {},
  "source": "// SPDX-License-Identifier: MIT\r\npragma solidity ^0.8.0;\r\n\r\ncontract AuditContract {\r\n    struct AuditRecord {\r\n        string codeHash;\r\n        address auditor;\r\n        uint256 timestamp;\r\n    }\r\n\r\n    mapping(uint256 => AuditRecord) public auditRecords;\r\n    uint256 public recordCount;\r\n    uint256 public auditFee = 0.0001 ether;\r\n    address public owner;\r\n\r\n    event AuditRecorded(uint256 recordId, string codeHash, address auditor, uint256 timestamp);\r\n    event AuditFeeSet(uint256 newFee);\r\n    event Debug(string message);\r\n\r\n    constructor() {\r\n        owner = msg.sender; // \r\n    }\r\n\r\n    modifier onlyOwner() {\r\n        require(msg.sender == owner, \"Only contract owner can call this function\");\r\n        _;\r\n    }\r\n\r\n    function uploadAuditRecord(string memory _codeHash) public payable {\r\n        require(msg.value >= auditFee, \"Insufficient audit fee\");\r\n        emit Debug(\"Audit fee is sufficient\");\r\n\r\n        recordCount++;\r\n        auditRecords[recordCount] = AuditRecord(_codeHash, msg.sender, block.timestamp);\r\n\r\n        emit AuditRecorded(recordCount, _codeHash, msg.sender, block.timestamp);\r\n        emit Debug(\"Audit record uploaded successfully\");\r\n    }\r\n\r\n    function setAuditFee(uint256 _newFee) public onlyOwner {\r\n        auditFee = _newFee;\r\n        emit AuditFeeSet(_newFee);\r\n    }\r\n\r\n    function changeOwner(address _newOwner) public onlyOwner {\r\n        owner = _newOwner;\r\n    }\r\n}",
  "sourcePath": "D:\\Coding_project\\code_security_audit_v1\\contracts\\AuditContract.sol",
  "compiler": {
    "name": "solc",
    "version": "0.8.0+commit.c7dfd78e.Emscripten.clang"
  },
  "schemaVersion": "3.4.16",
  "updatedAt": "2024-07-12T12:49:34.228Z",
  "networkType": "ethereum",
  "devdoc": {
    "kind": "dev",
    "methods": {},
    "version": 1
  },
  "userdoc": {
    "kind": "user",
    "methods": {},
    "version": 1
  }
}